{
  "contractName": "Academy",
  "abi": [
    {
      "inputs": [],
      "stateMutability": "nonpayable",
      "type": "constructor"
    },
    {
      "anonymous": false,
      "inputs": [
        {
          "indexed": true,
          "internalType": "address",
          "name": "previousOwner",
          "type": "address"
        },
        {
          "indexed": true,
          "internalType": "address",
          "name": "newOwner",
          "type": "address"
        }
      ],
      "name": "OwnershipTransferred",
      "type": "event"
    },
    {
      "anonymous": false,
      "inputs": [
        {
          "indexed": false,
          "internalType": "uint256",
          "name": "tenure_id",
          "type": "uint256"
        },
        {
          "indexed": false,
          "internalType": "uint8",
          "name": "academy_mode",
          "type": "uint8"
        },
        {
          "indexed": false,
          "internalType": "uint256",
          "name": "start_time",
          "type": "uint256"
        },
        {
          "indexed": false,
          "internalType": "uint256",
          "name": "tenure_length",
          "type": "uint256"
        }
      ],
      "name": "TenureActivated",
      "type": "event"
    },
    {
      "anonymous": false,
      "inputs": [
        {
          "indexed": false,
          "internalType": "uint256",
          "name": "tenure_id",
          "type": "uint256"
        },
        {
          "indexed": false,
          "internalType": "uint256",
          "name": "current_derc_supply",
          "type": "uint256"
        }
      ],
      "name": "TenureCancelled",
      "type": "event"
    },
    {
      "anonymous": false,
      "inputs": [
        {
          "indexed": false,
          "internalType": "uint256",
          "name": "tenure_id",
          "type": "uint256"
        },
        {
          "indexed": false,
          "internalType": "uint256",
          "name": "current_derc_supply",
          "type": "uint256"
        }
      ],
      "name": "TenureExpired",
      "type": "event"
    },
    {
      "anonymous": false,
      "inputs": [
        {
          "indexed": false,
          "internalType": "uint256",
          "name": "tenure_id",
          "type": "uint256"
        },
        {
          "indexed": false,
          "internalType": "address",
          "name": "horse_owner",
          "type": "address"
        },
        {
          "indexed": false,
          "internalType": "uint8",
          "name": "academy_mode",
          "type": "uint8"
        },
        {
          "indexed": false,
          "internalType": "uint256",
          "name": "derc_requirement",
          "type": "uint256"
        },
        {
          "indexed": false,
          "internalType": "uint256",
          "name": "tenure_length",
          "type": "uint256"
        }
      ],
      "name": "TenureInitialized",
      "type": "event"
    },
    {
      "anonymous": false,
      "inputs": [
        {
          "indexed": false,
          "internalType": "uint256",
          "name": "tenure_id",
          "type": "uint256"
        },
        {
          "indexed": false,
          "internalType": "address",
          "name": "horse_owner",
          "type": "address"
        },
        {
          "indexed": false,
          "internalType": "uint64",
          "name": "horse_id",
          "type": "uint64"
        },
        {
          "indexed": false,
          "internalType": "uint256",
          "name": "supplied_derc",
          "type": "uint256"
        }
      ],
      "name": "TenureSupplied",
      "type": "event"
    },
    {
      "inputs": [],
      "name": "owner",
      "outputs": [
        {
          "internalType": "address",
          "name": "",
          "type": "address"
        }
      ],
      "stateMutability": "view",
      "type": "function"
    },
    {
      "inputs": [],
      "name": "renounceOwnership",
      "outputs": [],
      "stateMutability": "nonpayable",
      "type": "function"
    },
    {
      "inputs": [
        {
          "internalType": "address",
          "name": "newOwner",
          "type": "address"
        }
      ],
      "name": "transferOwnership",
      "outputs": [],
      "stateMutability": "nonpayable",
      "type": "function"
    },
    {
      "inputs": [
        {
          "internalType": "address",
          "name": "_academy",
          "type": "address"
        }
      ],
      "name": "set_roles",
      "outputs": [],
      "stateMutability": "nonpayable",
      "type": "function"
    },
    {
      "inputs": [
        {
          "internalType": "address",
          "name": "_derace_contract",
          "type": "address"
        },
        {
          "internalType": "address",
          "name": "_horse_token",
          "type": "address"
        },
        {
          "internalType": "address",
          "name": "_derc_token",
          "type": "address"
        }
      ],
      "name": "set_external_contracts",
      "outputs": [],
      "stateMutability": "nonpayable",
      "type": "function"
    },
    {
      "inputs": [
        {
          "internalType": "address",
          "name": "_horse_owner",
          "type": "address"
        },
        {
          "internalType": "uint8",
          "name": "_academy_mode",
          "type": "uint8"
        },
        {
          "internalType": "uint256",
          "name": "_initial_derc_supply",
          "type": "uint256"
        },
        {
          "internalType": "uint256",
          "name": "_tenure_length",
          "type": "uint256"
        }
      ],
      "name": "initialize_tenure",
      "outputs": [],
      "stateMutability": "nonpayable",
      "type": "function"
    },
    {
      "inputs": [
        {
          "internalType": "uint256",
          "name": "tenure_id",
          "type": "uint256"
        }
      ],
      "name": "get_tenure",
      "outputs": [
        {
          "internalType": "enum Tenure.TenureState",
          "name": "state",
          "type": "uint8"
        },
        {
          "internalType": "address",
          "name": "horse_owner",
          "type": "address"
        },
        {
          "internalType": "uint64",
          "name": "horse_id",
          "type": "uint64"
        },
        {
          "internalType": "uint8",
          "name": "academy_mode",
          "type": "uint8"
        },
        {
          "internalType": "uint256",
          "name": "initial_derc_supply",
          "type": "uint256"
        },
        {
          "internalType": "uint256",
          "name": "current_derc_supply",
          "type": "uint256"
        },
        {
          "internalType": "uint256",
          "name": "start_time",
          "type": "uint256"
        },
        {
          "internalType": "uint256",
          "name": "tenure_length",
          "type": "uint256"
        }
      ],
      "stateMutability": "view",
      "type": "function"
    },
    {
      "inputs": [
        {
          "internalType": "uint256",
          "name": "tenure_id",
          "type": "uint256"
        }
      ],
      "name": "get_tenure_address",
      "outputs": [
        {
          "internalType": "address",
          "name": "tenure_address",
          "type": "address"
        }
      ],
      "stateMutability": "view",
      "type": "function"
    },
    {
      "inputs": [],
      "name": "get_all_tenures",
      "outputs": [
        {
          "internalType": "uint256[]",
          "name": "all_tenures",
          "type": "uint256[]"
        }
      ],
      "stateMutability": "view",
      "type": "function"
    },
    {
      "inputs": [
        {
          "internalType": "uint256",
          "name": "tenure_id",
          "type": "uint256"
        },
        {
          "internalType": "uint64",
          "name": "_horse_id",
          "type": "uint64"
        }
      ],
      "name": "supply_tenure",
      "outputs": [],
      "stateMutability": "nonpayable",
      "type": "function"
    },
    {
      "inputs": [
        {
          "internalType": "uint256",
          "name": "tenure_id",
          "type": "uint256"
        }
      ],
      "name": "activate_tenure",
      "outputs": [],
      "stateMutability": "nonpayable",
      "type": "function"
    },
    {
      "inputs": [
        {
          "internalType": "uint256",
          "name": "tenure_id",
          "type": "uint256"
        },
        {
          "internalType": "uint256",
          "name": "race_id",
          "type": "uint256"
        }
      ],
      "name": "register",
      "outputs": [],
      "stateMutability": "nonpayable",
      "type": "function"
    },
    {
      "inputs": [
        {
          "internalType": "uint256",
          "name": "tenure_id",
          "type": "uint256"
        }
      ],
      "name": "cancel_tenure",
      "outputs": [],
      "stateMutability": "nonpayable",
      "type": "function"
    },
    {
      "inputs": [
        {
          "internalType": "uint256",
          "name": "tenure_id",
          "type": "uint256"
        },
        {
          "internalType": "bool",
          "name": "paused",
          "type": "bool"
        }
      ],
      "name": "set_tenure_paused",
      "outputs": [],
      "stateMutability": "nonpayable",
      "type": "function"
    },
    {
      "inputs": [
        {
          "internalType": "uint256",
          "name": "tenure_id",
          "type": "uint256"
        },
        {
          "internalType": "uint8",
          "name": "academy_mode",
          "type": "uint8"
        }
      ],
      "name": "set_tenure_academy_mode",
      "outputs": [],
      "stateMutability": "nonpayable",
      "type": "function"
    },
    {
      "inputs": [
        {
          "internalType": "uint256",
          "name": "tenure_id",
          "type": "uint256"
        },
        {
          "internalType": "uint256",
          "name": "amount",
          "type": "uint256"
        }
      ],
      "name": "deposit_funds_to_tenure",
      "outputs": [],
      "stateMutability": "nonpayable",
      "type": "function"
    },
    {
      "inputs": [
        {
          "internalType": "uint256",
          "name": "tenure_id",
          "type": "uint256"
        },
        {
          "internalType": "uint256",
          "name": "amount",
          "type": "uint256"
        },
        {
          "internalType": "address",
          "name": "to_address",
          "type": "address"
        }
      ],
      "name": "withdraw_funds_from_tenure",
      "outputs": [],
      "stateMutability": "nonpayable",
      "type": "function"
    }
  ],
  "bytecode": "0x60806040523480156200001157600080fd5b5062000032620000266200003860201b60201c565b6200004060201b60201c565b62000104565b600033905090565b60008060009054906101000a900473ffffffffffffffffffffffffffffffffffffffff169050816000806101000a81548173ffffffffffffffffffffffffffffffffffffffff021916908373ffffffffffffffffffffffffffffffffffffffff1602179055508173ffffffffffffffffffffffffffffffffffffffff168173ffffffffffffffffffffffffffffffffffffffff167f8be0079c531659141344cd1fd0a4f28419497f9722a3daafe3b4186f6b6457e060405160405180910390a35050565b615e8080620001146000396000f3fe60806040523480156200001157600080fd5b5060043610620001245760003560e01c8063c30360e111620000b1578063d66d6c10116200007b578063d66d6c1014620002ca578063dfaf270d14620002ea578063f1a71265146200030a578063f288c92c146200032c578063f2fde38b146200034c5762000124565b8063c30360e11462000217578063c7e999de146200024d578063c7fd5def146200026d578063c86d81d014620002aa5762000124565b8063857b18eb11620000f3578063857b18eb14620001955780638a71e9d814620001b55780638da5cb5b14620001d5578063c27d46fa14620001f75762000124565b80630397a1e6146200012957806312ef87a21462000149578063715018a61462000169578063855ded921462000175575b600080fd5b620001476004803603810190620001419190620033c7565b6200036c565b005b6200016760048036038101906200016191906200344b565b6200058a565b005b62000173620008a8565b005b6200019360048036038101906200018d9190620034d7565b62000939565b005b620001b36004803603810190620001ad91906200351e565b620010a1565b005b620001d36004803603810190620001cd9190620035b5565b6200142e565b005b620001df620016d4565b604051620001ee919062003638565b60405180910390f35b6200021560048036038101906200020f919062003655565b620016fd565b005b6200023560048036038101906200022f91906200351e565b620017c4565b60405162000244919062003638565b60405180910390f35b6200026b600480360381019062000265919062003687565b62001929565b005b6200028b60048036038101906200028591906200351e565b62001d07565b604051620002a198979695949392919062003796565b60405180910390f35b620002c86004803603810190620002c2919062003824565b62001f74565b005b620002e86004803603810190620002e2919062003880565b62002141565b005b6200030860048036038101906200030291906200351e565b620025e8565b005b62000314620029ba565b60405162000323919062003995565b60405180910390f35b6200034a600480360381019062000344919062003880565b62002a97565b005b6200036a600480360381019062000364919062003655565b620030cb565b005b600160009054906101000a900473ffffffffffffffffffffffffffffffffffffffff1673ffffffffffffffffffffffffffffffffffffffff163373ffffffffffffffffffffffffffffffffffffffff161480620003fd5750620003ce620016d4565b73ffffffffffffffffffffffffffffffffffffffff163373ffffffffffffffffffffffffffffffffffffffff16145b6200043f576040517f08c379a0000000000000000000000000000000000000000000000000000000008152600401620004369062003a1a565b60405180910390fd5b600073ffffffffffffffffffffffffffffffffffffffff166008600084815260200190815260200160002060009054906101000a900473ffffffffffffffffffffffffffffffffffffffff1673ffffffffffffffffffffffffffffffffffffffff1603620004e4576040517f08c379a0000000000000000000000000000000000000000000000000000000008152600401620004db9062003a8c565b60405180910390fd5b6008600083815260200190815260200160002060009054906101000a900473ffffffffffffffffffffffffffffffffffffffff1673ffffffffffffffffffffffffffffffffffffffff16636756e5f5826040518263ffffffff1660e01b815260040162000552919062003aae565b600060405180830381600087803b1580156200056d57600080fd5b505af115801562000582573d6000803e3d6000fd5b505050505050565b62000594620031ce565b73ffffffffffffffffffffffffffffffffffffffff16620005b4620016d4565b73ffffffffffffffffffffffffffffffffffffffff16146200060d576040517f08c379a0000000000000000000000000000000000000000000000000000000008152600401620006049062003b1b565b60405180910390fd5b600073ffffffffffffffffffffffffffffffffffffffff166008600084815260200190815260200160002060009054906101000a900473ffffffffffffffffffffffffffffffffffffffff1673ffffffffffffffffffffffffffffffffffffffff1603620006b2576040517f08c379a0000000000000000000000000000000000000000000000000000000008152600401620006a99062003a8c565b60405180910390fd5b60006008600084815260200190815260200160002060009054906101000a900473ffffffffffffffffffffffffffffffffffffffff1673ffffffffffffffffffffffffffffffffffffffff166386b301ad6040518163ffffffff1660e01b8152600401602060405180830381865afa15801562000733573d6000803e3d6000fd5b505050506040513d601f19601f8201168201806040525081019062000759919062003b65565b905060026004811115620007725762000771620036e3565b5b816004811115620007885762000787620036e3565b5b1480620007bf575060036004811115620007a757620007a6620036e3565b5b816004811115620007bd57620007bc620036e3565b5b145b62000801576040517f08c379a0000000000000000000000000000000000000000000000000000000008152600401620007f89062003be7565b60405180910390fd5b6008600084815260200190815260200160002060009054906101000a900473ffffffffffffffffffffffffffffffffffffffff1673ffffffffffffffffffffffffffffffffffffffff16630ff5ce72836040518263ffffffff1660e01b81526004016200086f919062003c1a565b600060405180830381600087803b1580156200088a57600080fd5b505af11580156200089f573d6000803e3d6000fd5b50505050505050565b620008b2620031ce565b73ffffffffffffffffffffffffffffffffffffffff16620008d2620016d4565b73ffffffffffffffffffffffffffffffffffffffff16146200092b576040517f08c379a0000000000000000000000000000000000000000000000000000000008152600401620009229062003b1b565b60405180910390fd5b620009376000620031d6565b565b600073ffffffffffffffffffffffffffffffffffffffff166008600084815260200190815260200160002060009054906101000a900473ffffffffffffffffffffffffffffffffffffffff1673ffffffffffffffffffffffffffffffffffffffff1603620009de576040517f08c379a0000000000000000000000000000000000000000000000000000000008152600401620009d59062003a8c565b60405180910390fd5b620009e8620032be565b6008600084815260200190815260200160002060009054906101000a900473ffffffffffffffffffffffffffffffffffffffff1673ffffffffffffffffffffffffffffffffffffffff166319a50f086040518163ffffffff1660e01b815260040161010060405180830381865afa15801562000a68573d6000803e3d6000fd5b505050506040513d601f19601f8201168201806040525081019062000a8e919062003c93565b909192935090915090505084600001856020018660400187608001848152508467ffffffffffffffff1667ffffffffffffffff168152508473ffffffffffffffffffffffffffffffffffffffff1673ffffffffffffffffffffffffffffffffffffffff1681525084600481111562000b0b5762000b0a620036e3565b5b600481111562000b205762000b1f620036e3565b5b815250505050506000600481111562000b3e5762000b3d620036e3565b5b8160000151600481111562000b585762000b57620036e3565b5b1462000b9b576040517f08c379a000000000000000000000000000000000000000000000000000000000815260040162000b929062003be7565b60405180910390fd5b3373ffffffffffffffffffffffffffffffffffffffff16816020015173ffffffffffffffffffffffffffffffffffffffff161462000c10576040517f08c379a000000000000000000000000000000000000000000000000000000000815260040162000c079062003a1a565b60405180910390fd5b600360009054906101000a900473ffffffffffffffffffffffffffffffffffffffff1673ffffffffffffffffffffffffffffffffffffffff166323b872dd336008600087815260200190815260200160002060009054906101000a900473ffffffffffffffffffffffffffffffffffffffff16856040518463ffffffff1660e01b815260040162000ca49392919062003d9f565b600060405180830381600087803b15801562000cbf57600080fd5b505af115801562000cd4573d6000803e3d6000fd5b50505050600460009054906101000a900473ffffffffffffffffffffffffffffffffffffffff1673ffffffffffffffffffffffffffffffffffffffff166323b872dd336008600087815260200190815260200160002060009054906101000a900473ffffffffffffffffffffffffffffffffffffffff1684608001516040518463ffffffff1660e01b815260040162000d709392919062003ddc565b6020604051808303816000875af115801562000d90573d6000803e3d6000fd5b505050506040513d601f19601f8201168201806040525081019062000db6919062003e30565b50600460009054906101000a900473ffffffffffffffffffffffffffffffffffffffff1673ffffffffffffffffffffffffffffffffffffffff166370a082316008600086815260200190815260200160002060009054906101000a900473ffffffffffffffffffffffffffffffffffffffff166040518263ffffffff1660e01b815260040162000e47919062003638565b602060405180830381865afa15801562000e65573d6000803e3d6000fd5b505050506040513d601f19601f8201168201806040525081019062000e8b919062003e62565b81608001511462000ea15762000ea062003e94565b5b6008600084815260200190815260200160002060009054906101000a900473ffffffffffffffffffffffffffffffffffffffff1673ffffffffffffffffffffffffffffffffffffffff16600360009054906101000a900473ffffffffffffffffffffffffffffffffffffffff1673ffffffffffffffffffffffffffffffffffffffff16636352211e846040518263ffffffff1660e01b815260040162000f48919062003ec3565b602060405180830381865afa15801562000f66573d6000803e3d6000fd5b505050506040513d601f19601f8201168201806040525081019062000f8c919062003ee0565b73ffffffffffffffffffffffffffffffffffffffff161462000fb35762000fb262003e94565b5b6008600084815260200190815260200160002060009054906101000a900473ffffffffffffffffffffffffffffffffffffffff1673ffffffffffffffffffffffffffffffffffffffff1663663b1953836040518263ffffffff1660e01b815260040162001021919062003f12565b600060405180830381600087803b1580156200103c57600080fd5b505af115801562001051573d6000803e3d6000fd5b505050507fdb2d9c982559ca4846c995603f2b17d24bfa8c6f26907da6d376404e7e466d9d83826020015184846080015160405162001094949392919062003f2f565b60405180910390a1505050565b620010ab620031ce565b73ffffffffffffffffffffffffffffffffffffffff16620010cb620016d4565b73ffffffffffffffffffffffffffffffffffffffff161462001124576040517f08c379a00000000000000000000000000000000000000000000000000000000081526004016200111b9062003b1b565b60405180910390fd5b600073ffffffffffffffffffffffffffffffffffffffff166008600083815260200190815260200160002060009054906101000a900473ffffffffffffffffffffffffffffffffffffffff1673ffffffffffffffffffffffffffffffffffffffff1603620011c9576040517f08c379a0000000000000000000000000000000000000000000000000000000008152600401620011c09062003a8c565b60405180910390fd5b620011d3620032be565b6008600083815260200190815260200160002060009054906101000a900473ffffffffffffffffffffffffffffffffffffffff1673ffffffffffffffffffffffffffffffffffffffff166319a50f086040518163ffffffff1660e01b815260040161010060405180830381865afa15801562001253573d6000803e3d6000fd5b505050506040513d601f19601f8201168201806040525081019062001279919062003c93565b9091929394955090919293945090919250909150905083600001846060018560e001838152508360ff1660ff16815250836004811115620012bf57620012be620036e3565b5b6004811115620012d457620012d3620036e3565b5b81525050505060016004811115620012f157620012f0620036e3565b5b816000015160048111156200130b576200130a620036e3565b5b146200134e576040517f08c379a0000000000000000000000000000000000000000000000000000000008152600401620013459062003be7565b60405180910390fd5b6008600083815260200190815260200160002060009054906101000a900473ffffffffffffffffffffffffffffffffffffffff1673ffffffffffffffffffffffffffffffffffffffff16630f15f4c06040518163ffffffff1660e01b8152600401600060405180830381600087803b158015620013ca57600080fd5b505af1158015620013df573d6000803e3d6000fd5b505050507fb884950e269990e24a0a12585c0d618eab04d23bc8b9eb1716928b6a9f3d1b32828260600151428460e0015160405162001422949392919062003f7c565b60405180910390a15050565b62001438620031ce565b73ffffffffffffffffffffffffffffffffffffffff1662001458620016d4565b73ffffffffffffffffffffffffffffffffffffffff1614620014b1576040517f08c379a0000000000000000000000000000000000000000000000000000000008152600401620014a89062003b1b565b60405180910390fd5b670de0b6b3a7640000821015620014ff576040517f08c379a0000000000000000000000000000000000000000000000000000000008152600401620014f69062004019565b60405180910390fd5b6000811162001545576040517f08c379a00000000000000000000000000000000000000000000000000000000081526004016200153c906200408b565b60405180910390fd5b60006200155360076200329a565b9050620015616007620032a8565b600085858585600260009054906101000a900473ffffffffffffffffffffffffffffffffffffffff16600660009054906101000a900473ffffffffffffffffffffffffffffffffffffffff16600560009054906101000a900473ffffffffffffffffffffffffffffffffffffffff16604051620015de906200333b565b620015f09796959493929190620040ad565b604051809103906000f0801580156200160d573d6000803e3d6000fd5b509050806008600084815260200190815260200160002060006101000a81548173ffffffffffffffffffffffffffffffffffffffff021916908373ffffffffffffffffffffffffffffffffffffffff16021790555060098290806001815401808255809150506001900390600052602060002001600090919091909150557f175d443c1f1607455434dfc346a8a00f9e4e9c69b6d8eb242cdaa66f75cea6368287878787604051620016c49594939291906200412a565b60405180910390a1505050505050565b60008060009054906101000a900473ffffffffffffffffffffffffffffffffffffffff16905090565b62001707620031ce565b73ffffffffffffffffffffffffffffffffffffffff1662001727620016d4565b73ffffffffffffffffffffffffffffffffffffffff161462001780576040517f08c379a0000000000000000000000000000000000000000000000000000000008152600401620017779062003b1b565b60405180910390fd5b80600160006101000a81548173ffffffffffffffffffffffffffffffffffffffff021916908373ffffffffffffffffffffffffffffffffffffffff16021790555050565b6000620017d0620031ce565b73ffffffffffffffffffffffffffffffffffffffff16620017f0620016d4565b73ffffffffffffffffffffffffffffffffffffffff161462001849576040517f08c379a0000000000000000000000000000000000000000000000000000000008152600401620018409062003b1b565b60405180910390fd5b600073ffffffffffffffffffffffffffffffffffffffff166008600084815260200190815260200160002060009054906101000a900473ffffffffffffffffffffffffffffffffffffffff1673ffffffffffffffffffffffffffffffffffffffff1603620018ee576040517f08c379a0000000000000000000000000000000000000000000000000000000008152600401620018e59062003a8c565b60405180910390fd5b6008600083815260200190815260200160002060009054906101000a900473ffffffffffffffffffffffffffffffffffffffff169050919050565b600160009054906101000a900473ffffffffffffffffffffffffffffffffffffffff1673ffffffffffffffffffffffffffffffffffffffff163373ffffffffffffffffffffffffffffffffffffffff161480620019ba57506200198b620016d4565b73ffffffffffffffffffffffffffffffffffffffff163373ffffffffffffffffffffffffffffffffffffffff16145b620019fc576040517f08c379a0000000000000000000000000000000000000000000000000000000008152600401620019f39062003a1a565b60405180910390fd5b600073ffffffffffffffffffffffffffffffffffffffff166008600085815260200190815260200160002060009054906101000a900473ffffffffffffffffffffffffffffffffffffffff1673ffffffffffffffffffffffffffffffffffffffff160362001aa1576040517f08c379a000000000000000000000000000000000000000000000000000000000815260040162001a989062003a8c565b60405180910390fd5b60006008600085815260200190815260200160002060009054906101000a900473ffffffffffffffffffffffffffffffffffffffff1673ffffffffffffffffffffffffffffffffffffffff166386b301ad6040518163ffffffff1660e01b8152600401602060405180830381865afa15801562001b22573d6000803e3d6000fd5b505050506040513d601f19601f8201168201806040525081019062001b48919062003b65565b90506001600481111562001b615762001b60620036e3565b5b81600481111562001b775762001b76620036e3565b5b148062001bae57506002600481111562001b965762001b95620036e3565b5b81600481111562001bac5762001bab620036e3565b5b145b8062001be457506003600481111562001bcc5762001bcb620036e3565b5b81600481111562001be25762001be1620036e3565b5b145b62001c26576040517f08c379a000000000000000000000000000000000000000000000000000000000815260040162001c1d9062003be7565b60405180910390fd5b600460009054906101000a900473ffffffffffffffffffffffffffffffffffffffff1673ffffffffffffffffffffffffffffffffffffffff166323b872dd6008600087815260200190815260200160002060009054906101000a900473ffffffffffffffffffffffffffffffffffffffff1684866040518463ffffffff1660e01b815260040162001cba9392919062003ddc565b6020604051808303816000875af115801562001cda573d6000803e3d6000fd5b505050506040513d601f19601f8201168201806040525081019062001d00919062003e30565b5050505050565b60008060008060008060008062001d1d620032be565b600860008b815260200190815260200160002060009054906101000a900473ffffffffffffffffffffffffffffffffffffffff1673ffffffffffffffffffffffffffffffffffffffff166319a50f086040518163ffffffff1660e01b815260040161010060405180830381865afa15801562001d9d573d6000803e3d6000fd5b505050506040513d601f19601f8201168201806040525081019062001dc3919062003c93565b88600001896020018a6040018b6060018c6080018d60a0018e60c0018f60e001888152508881525088815250888152508860ff1660ff168152508867ffffffffffffffff1667ffffffffffffffff168152508873ffffffffffffffffffffffffffffffffffffffff1673ffffffffffffffffffffffffffffffffffffffff1681525088600481111562001e5b5762001e5a620036e3565b5b600481111562001e705762001e6f620036e3565b5b8152505050505050505050806020015173ffffffffffffffffffffffffffffffffffffffff163373ffffffffffffffffffffffffffffffffffffffff16148062001eee575062001ebf620016d4565b73ffffffffffffffffffffffffffffffffffffffff163373ffffffffffffffffffffffffffffffffffffffff16145b62001f30576040517f08c379a000000000000000000000000000000000000000000000000000000000815260040162001f279062003a1a565b60405180910390fd5b806000015181602001518260400151836060015184608001518560a001518660c001518760e001519850985098509850985098509850985050919395975091939597565b62001f7e620031ce565b73ffffffffffffffffffffffffffffffffffffffff1662001f9e620016d4565b73ffffffffffffffffffffffffffffffffffffffff161462001ff7576040517f08c379a000000000000000000000000000000000000000000000000000000000815260040162001fee9062003b1b565b60405180910390fd5b82600260006101000a81548173ffffffffffffffffffffffffffffffffffffffff021916908373ffffffffffffffffffffffffffffffffffffffff16021790555081600360006101000a81548173ffffffffffffffffffffffffffffffffffffffff021916908373ffffffffffffffffffffffffffffffffffffffff16021790555081600560006101000a81548173ffffffffffffffffffffffffffffffffffffffff021916908373ffffffffffffffffffffffffffffffffffffffff16021790555080600460006101000a81548173ffffffffffffffffffffffffffffffffffffffff021916908373ffffffffffffffffffffffffffffffffffffffff16021790555080600660006101000a81548173ffffffffffffffffffffffffffffffffffffffff021916908373ffffffffffffffffffffffffffffffffffffffff160217905550505050565b600160009054906101000a900473ffffffffffffffffffffffffffffffffffffffff1673ffffffffffffffffffffffffffffffffffffffff163373ffffffffffffffffffffffffffffffffffffffff1614620021d4576040517f08c379a0000000000000000000000000000000000000000000000000000000008152600401620021cb9062003a1a565b60405180910390fd5b600073ffffffffffffffffffffffffffffffffffffffff166008600084815260200190815260200160002060009054906101000a900473ffffffffffffffffffffffffffffffffffffffff1673ffffffffffffffffffffffffffffffffffffffff160362002279576040517f08c379a0000000000000000000000000000000000000000000000000000000008152600401620022709062003a8c565b60405180910390fd5b62002283620032be565b6008600084815260200190815260200160002060009054906101000a900473ffffffffffffffffffffffffffffffffffffffff1673ffffffffffffffffffffffffffffffffffffffff166319a50f086040518163ffffffff1660e01b815260040161010060405180830381865afa15801562002303573d6000803e3d6000fd5b505050506040513d601f19601f8201168201806040525081019062002329919062003c93565b90919293949550909192939450909192935090919250846000018560a0018660c0018760e001848152508481525084815250846004811115620023715762002370620036e3565b5b6004811115620023865762002385620036e3565b5b8152505050505060036004811115620023a457620023a3620036e3565b5b81600001516004811115620023be57620023bd620036e3565b5b0362002401576040517f08c379a0000000000000000000000000000000000000000000000000000000008152600401620023f890620041d7565b60405180910390fd5b60026004811115620024185762002417620036e3565b5b81600001516004811115620024325762002431620036e3565b5b1462002475576040517f08c379a00000000000000000000000000000000000000000000000000000000081526004016200246c9062003be7565b60405180910390fd5b60006008600085815260200190815260200160002060009054906101000a900473ffffffffffffffffffffffffffffffffffffffff169050428260e001518360c00151620024c4919062004228565b101562002572578073ffffffffffffffffffffffffffffffffffffffff1663ea8a1af06040518163ffffffff1660e01b8152600401600060405180830381600087803b1580156200251457600080fd5b505af115801562002529573d6000803e3d6000fd5b505050507f9556c95c923eaad6e061ec984fcc54d9e915686e836e7935968b7217fbc55014848360a001516040516200256492919062004285565b60405180910390a1620025e2565b8073ffffffffffffffffffffffffffffffffffffffff1663f207564e846040518263ffffffff1660e01b8152600401620025ad9190620042b2565b600060405180830381600087803b158015620025c857600080fd5b505af1158015620025dd573d6000803e3d6000fd5b505050505b50505050565b600073ffffffffffffffffffffffffffffffffffffffff166008600083815260200190815260200160002060009054906101000a900473ffffffffffffffffffffffffffffffffffffffff1673ffffffffffffffffffffffffffffffffffffffff16036200268d576040517f08c379a0000000000000000000000000000000000000000000000000000000008152600401620026849062003a8c565b60405180910390fd5b62002697620032be565b6008600083815260200190815260200160002060009054906101000a900473ffffffffffffffffffffffffffffffffffffffff1673ffffffffffffffffffffffffffffffffffffffff166319a50f086040518163ffffffff1660e01b815260040161010060405180830381865afa15801562002717573d6000803e3d6000fd5b505050506040513d601f19601f820116820180604052508101906200273d919062003c93565b90919293945090919293509091925090915090505082600001836020018273ffffffffffffffffffffffffffffffffffffffff1673ffffffffffffffffffffffffffffffffffffffff16815250826004811115620027a0576200279f620036e3565b5b6004811115620027b557620027b4620036e3565b5b8152505050600480811115620027d057620027cf620036e3565b5b81600001516004811115620027ea57620027e9620036e3565b5b036200282d576040517f08c379a0000000000000000000000000000000000000000000000000000000008152600401620028249062003be7565b60405180910390fd5b62002837620016d4565b73ffffffffffffffffffffffffffffffffffffffff163373ffffffffffffffffffffffffffffffffffffffff161480620028a05750806020015173ffffffffffffffffffffffffffffffffffffffff163373ffffffffffffffffffffffffffffffffffffffff16145b620028e2576040517f08c379a0000000000000000000000000000000000000000000000000000000008152600401620028d99062003a1a565b60405180910390fd5b6008600083815260200190815260200160002060009054906101000a900473ffffffffffffffffffffffffffffffffffffffff1673ffffffffffffffffffffffffffffffffffffffff1663ea8a1af06040518163ffffffff1660e01b8152600401600060405180830381600087803b1580156200295e57600080fd5b505af115801562002973573d6000803e3d6000fd5b505050507f70f8512f0f4bebb85ab7bfa704ec45a10abed9e4017c5bef7034176123b5ce93828260a00151604051620029ae92919062004285565b60405180910390a15050565b6060620029c6620031ce565b73ffffffffffffffffffffffffffffffffffffffff16620029e6620016d4565b73ffffffffffffffffffffffffffffffffffffffff161462002a3f576040517f08c379a000000000000000000000000000000000000000000000000000000000815260040162002a369062003b1b565b60405180910390fd5b600980548060200260200160405190810160405280929190818152602001828054801562002a8d57602002820191906000526020600020905b81548152602001906001019080831162002a78575b5050505050905090565b600073ffffffffffffffffffffffffffffffffffffffff166008600084815260200190815260200160002060009054906101000a900473ffffffffffffffffffffffffffffffffffffffff1673ffffffffffffffffffffffffffffffffffffffff160362002b3c576040517f08c379a000000000000000000000000000000000000000000000000000000000815260040162002b339062003a8c565b60405180910390fd5b6000806008600085815260200190815260200160002060009054906101000a900473ffffffffffffffffffffffffffffffffffffffff1673ffffffffffffffffffffffffffffffffffffffff166319a50f086040518163ffffffff1660e01b815260040161010060405180830381865afa15801562002bbf573d6000803e3d6000fd5b505050506040513d601f19601f8201168201806040525081019062002be5919062003c93565b505050505050915091506001600481111562002c065762002c05620036e3565b5b82600481111562002c1c5762002c1b620036e3565b5b148062002c5357506002600481111562002c3b5762002c3a620036e3565b5b82600481111562002c515762002c50620036e3565b5b145b8062002c8957506003600481111562002c715762002c70620036e3565b5b82600481111562002c875762002c86620036e3565b5b145b62002ccb576040517f08c379a000000000000000000000000000000000000000000000000000000000815260040162002cc29062003be7565b60405180910390fd5b62002cd5620016d4565b73ffffffffffffffffffffffffffffffffffffffff163373ffffffffffffffffffffffffffffffffffffffff16148062002d3a57508073ffffffffffffffffffffffffffffffffffffffff163373ffffffffffffffffffffffffffffffffffffffff16145b62002d7c576040517f08c379a000000000000000000000000000000000000000000000000000000000815260040162002d739062003a1a565b60405180910390fd5b6000600460009054906101000a900473ffffffffffffffffffffffffffffffffffffffff1673ffffffffffffffffffffffffffffffffffffffff166370a082316008600088815260200190815260200160002060009054906101000a900473ffffffffffffffffffffffffffffffffffffffff166040518263ffffffff1660e01b815260040162002e0e919062003638565b602060405180830381865afa15801562002e2c573d6000803e3d6000fd5b505050506040513d601f19601f8201168201806040525081019062002e52919062003e62565b9050600460009054906101000a900473ffffffffffffffffffffffffffffffffffffffff1673ffffffffffffffffffffffffffffffffffffffff166323b872dd336008600089815260200190815260200160002060009054906101000a900473ffffffffffffffffffffffffffffffffffffffff16876040518463ffffffff1660e01b815260040162002ee89392919062003ddc565b6020604051808303816000875af115801562002f08573d6000803e3d6000fd5b505050506040513d601f19601f8201168201806040525081019062002f2e919062003e30565b50600460009054906101000a900473ffffffffffffffffffffffffffffffffffffffff1673ffffffffffffffffffffffffffffffffffffffff166370a082316008600088815260200190815260200160002060009054906101000a900473ffffffffffffffffffffffffffffffffffffffff166040518263ffffffff1660e01b815260040162002fbf919062003638565b602060405180830381865afa15801562002fdd573d6000803e3d6000fd5b505050506040513d601f19601f8201168201806040525081019062003003919062003e62565b848262003011919062004228565b1462003022576200302162003e94565b5b6008600086815260200190815260200160002060009054906101000a900473ffffffffffffffffffffffffffffffffffffffff1673ffffffffffffffffffffffffffffffffffffffff1663ab47176c856040518263ffffffff1660e01b8152600401620030909190620042b2565b600060405180830381600087803b158015620030ab57600080fd5b505af1158015620030c0573d6000803e3d6000fd5b505050505050505050565b620030d5620031ce565b73ffffffffffffffffffffffffffffffffffffffff16620030f5620016d4565b73ffffffffffffffffffffffffffffffffffffffff16146200314e576040517f08c379a0000000000000000000000000000000000000000000000000000000008152600401620031459062003b1b565b60405180910390fd5b600073ffffffffffffffffffffffffffffffffffffffff168173ffffffffffffffffffffffffffffffffffffffff1603620031c0576040517f08c379a0000000000000000000000000000000000000000000000000000000008152600401620031b79062004345565b60405180910390fd5b620031cb81620031d6565b50565b600033905090565b60008060009054906101000a900473ffffffffffffffffffffffffffffffffffffffff169050816000806101000a81548173ffffffffffffffffffffffffffffffffffffffff021916908373ffffffffffffffffffffffffffffffffffffffff1602179055508173ffffffffffffffffffffffffffffffffffffffff168173ffffffffffffffffffffffffffffffffffffffff167f8be0079c531659141344cd1fd0a4f28419497f9722a3daafe3b4186f6b6457e060405160405180910390a35050565b600081600001549050919050565b6001816000016000828254019250508190555050565b60405180610100016040528060006004811115620032e157620032e0620036e3565b5b8152602001600073ffffffffffffffffffffffffffffffffffffffff168152602001600067ffffffffffffffff168152602001600060ff168152602001600081526020016000815260200160008152602001600081525090565b611ae3806200436883390190565b600080fd5b6000819050919050565b62003363816200334e565b81146200336f57600080fd5b50565b600081359050620033838162003358565b92915050565b600060ff82169050919050565b620033a18162003389565b8114620033ad57600080fd5b50565b600081359050620033c18162003396565b92915050565b60008060408385031215620033e157620033e062003349565b5b6000620033f18582860162003372565b92505060206200340485828601620033b0565b9150509250929050565b60008115159050919050565b62003425816200340e565b81146200343157600080fd5b50565b60008135905062003445816200341a565b92915050565b6000806040838503121562003465576200346462003349565b5b6000620034758582860162003372565b9250506020620034888582860162003434565b9150509250929050565b600067ffffffffffffffff82169050919050565b620034b18162003492565b8114620034bd57600080fd5b50565b600081359050620034d181620034a6565b92915050565b60008060408385031215620034f157620034f062003349565b5b6000620035018582860162003372565b92505060206200351485828601620034c0565b9150509250929050565b60006020828403121562003537576200353662003349565b5b6000620035478482850162003372565b91505092915050565b600073ffffffffffffffffffffffffffffffffffffffff82169050919050565b60006200357d8262003550565b9050919050565b6200358f8162003570565b81146200359b57600080fd5b50565b600081359050620035af8162003584565b92915050565b60008060008060808587031215620035d257620035d162003349565b5b6000620035e2878288016200359e565b9450506020620035f587828801620033b0565b9350506040620036088782880162003372565b92505060606200361b8782880162003372565b91505092959194509250565b620036328162003570565b82525050565b60006020820190506200364f600083018462003627565b92915050565b6000602082840312156200366e576200366d62003349565b5b60006200367e848285016200359e565b91505092915050565b600080600060608486031215620036a357620036a262003349565b5b6000620036b38682870162003372565b9350506020620036c68682870162003372565b9250506040620036d9868287016200359e565b9150509250925092565b7f4e487b7100000000000000000000000000000000000000000000000000000000600052602160045260246000fd5b60058110620037265762003725620036e3565b5b50565b6000819050620037398262003712565b919050565b60006200374b8262003729565b9050919050565b6200375d816200373e565b82525050565b6200376e8162003492565b82525050565b6200377f8162003389565b82525050565b62003790816200334e565b82525050565b600061010082019050620037ae600083018b62003752565b620037bd602083018a62003627565b620037cc604083018962003763565b620037db606083018862003774565b620037ea608083018762003785565b620037f960a083018662003785565b6200380860c083018562003785565b6200381760e083018462003785565b9998505050505050505050565b60008060006060848603121562003840576200383f62003349565b5b600062003850868287016200359e565b935050602062003863868287016200359e565b925050604062003876868287016200359e565b9150509250925092565b600080604083850312156200389a576200389962003349565b5b6000620038aa8582860162003372565b9250506020620038bd8582860162003372565b9150509250929050565b600081519050919050565b600082825260208201905092915050565b6000819050602082019050919050565b620038fe816200334e565b82525050565b6000620039128383620038f3565b60208301905092915050565b6000602082019050919050565b60006200393882620038c7565b620039448185620038d2565b93506200395183620038e3565b8060005b83811015620039885781516200396c888262003904565b975062003979836200391e565b92505060018101905062003955565b5085935050505092915050565b60006020820190508181036000830152620039b181846200392b565b905092915050565b600082825260208201905092915050565b7f756e617574686f72697a65640000000000000000000000000000000000000000600082015250565b600062003a02600c83620039b9565b915062003a0f82620039ca565b602082019050919050565b6000602082019050818103600083015262003a3581620039f3565b9050919050565b7f696e76616c696400000000000000000000000000000000000000000000000000600082015250565b600062003a74600783620039b9565b915062003a818262003a3c565b602082019050919050565b6000602082019050818103600083015262003aa78162003a65565b9050919050565b600060208201905062003ac5600083018462003774565b92915050565b7f4f776e61626c653a2063616c6c6572206973206e6f7420746865206f776e6572600082015250565b600062003b03602083620039b9565b915062003b108262003acb565b602082019050919050565b6000602082019050818103600083015262003b368162003af4565b9050919050565b6005811062003b4b57600080fd5b50565b60008151905062003b5f8162003b3d565b92915050565b60006020828403121562003b7e5762003b7d62003349565b5b600062003b8e8482850162003b4e565b91505092915050565b7f77726f6e67207374617465000000000000000000000000000000000000000000600082015250565b600062003bcf600b83620039b9565b915062003bdc8262003b97565b602082019050919050565b6000602082019050818103600083015262003c028162003bc0565b9050919050565b62003c14816200340e565b82525050565b600060208201905062003c31600083018462003c09565b92915050565b60008151905062003c488162003584565b92915050565b60008151905062003c5f81620034a6565b92915050565b60008151905062003c768162003396565b92915050565b60008151905062003c8d8162003358565b92915050565b600080600080600080600080610100898b03121562003cb75762003cb662003349565b5b600062003cc78b828c0162003b4e565b985050602062003cda8b828c0162003c37565b975050604062003ced8b828c0162003c4e565b965050606062003d008b828c0162003c65565b955050608062003d138b828c0162003c7c565b94505060a062003d268b828c0162003c7c565b93505060c062003d398b828c0162003c7c565b92505060e062003d4c8b828c0162003c7c565b9150509295985092959890939650565b6000819050919050565b600062003d8762003d8162003d7b8462003492565b62003d5c565b6200334e565b9050919050565b62003d998162003d66565b82525050565b600060608201905062003db6600083018662003627565b62003dc5602083018562003627565b62003dd4604083018462003d8e565b949350505050565b600060608201905062003df3600083018662003627565b62003e02602083018562003627565b62003e11604083018462003785565b949350505050565b60008151905062003e2a816200341a565b92915050565b60006020828403121562003e495762003e4862003349565b5b600062003e598482850162003e19565b91505092915050565b60006020828403121562003e7b5762003e7a62003349565b5b600062003e8b8482850162003c7c565b91505092915050565b7f4e487b7100000000000000000000000000000000000000000000000000000000600052600160045260246000fd5b600060208201905062003eda600083018462003d8e565b92915050565b60006020828403121562003ef95762003ef862003349565b5b600062003f098482850162003c37565b91505092915050565b600060208201905062003f29600083018462003763565b92915050565b600060808201905062003f46600083018762003785565b62003f55602083018662003627565b62003f64604083018562003763565b62003f73606083018462003785565b95945050505050565b600060808201905062003f93600083018762003785565b62003fa2602083018662003774565b62003fb1604083018562003785565b62003fc0606083018462003785565b95945050505050565b7f746f6f206c6974746c6520646572630000000000000000000000000000000000600082015250565b600062004001600f83620039b9565b91506200400e8262003fc9565b602082019050919050565b60006020820190508181036000830152620040348162003ff2565b9050919050565b7f6c656e67746820746f6f206c6f77000000000000000000000000000000000000600082015250565b600062004073600e83620039b9565b915062004080826200403b565b602082019050919050565b60006020820190508181036000830152620040a68162004064565b9050919050565b600060e082019050620040c4600083018a62003627565b620040d3602083018962003774565b620040e2604083018862003785565b620040f1606083018762003785565b62004100608083018662003627565b6200410f60a083018562003627565b6200411e60c083018462003627565b98975050505050505050565b600060a08201905062004141600083018862003785565b62004150602083018762003627565b6200415f604083018662003774565b6200416e606083018562003785565b6200417d608083018462003785565b9695505050505050565b7f7061757365640000000000000000000000000000000000000000000000000000600082015250565b6000620041bf600683620039b9565b9150620041cc8262004187565b602082019050919050565b60006020820190508181036000830152620041f281620041b0565b9050919050565b7f4e487b7100000000000000000000000000000000000000000000000000000000600052601160045260246000fd5b600062004235826200334e565b915062004242836200334e565b9250827fffffffffffffffffffffffffffffffffffffffffffffffffffffffffffffffff038211156200427a5762004279620041f9565b5b828201905092915050565b60006040820190506200429c600083018562003785565b620042ab602083018462003785565b9392505050565b6000602082019050620042c9600083018462003785565b92915050565b7f4f776e61626c653a206e6577206f776e657220697320746865207a65726f206160008201527f6464726573730000000000000000000000000000000000000000000000000000602082015250565b60006200432d602683620039b9565b91506200433a82620042cf565b604082019050919050565b6000602082019050818103600083015262004360816200431e565b905091905056fe60806040523480156200001157600080fd5b5060405162001ae338038062001ae3833981810160405281019062000037919062000526565b620000576200004b6200034e60201b60201c565b6200035660201b60201c565b86600160006101000a81548173ffffffffffffffffffffffffffffffffffffffff021916908373ffffffffffffffffffffffffffffffffffffffff160217905550856001601c6101000a81548160ff021916908360ff160217905550846002819055508360048190555082600560006101000a81548173ffffffffffffffffffffffffffffffffffffffff021916908373ffffffffffffffffffffffffffffffffffffffff16021790555081600660006101000a81548173ffffffffffffffffffffffffffffffffffffffff021916908373ffffffffffffffffffffffffffffffffffffffff16021790555080600760006101000a81548173ffffffffffffffffffffffffffffffffffffffff021916908373ffffffffffffffffffffffffffffffffffffffff160217905550600660009054906101000a900473ffffffffffffffffffffffffffffffffffffffff1673ffffffffffffffffffffffffffffffffffffffff1663095ea7b3600560009054906101000a900473ffffffffffffffffffffffffffffffffffffffff167fffffffffffffffffffffffffffffffffffffffffffffffffffffffffffffffff6040518363ffffffff1660e01b81526004016200022592919062000637565b6020604051808303816000875af115801562000245573d6000803e3d6000fd5b505050506040513d601f19601f820116820180604052508101906200026b9190620006a1565b50600660009054906101000a900473ffffffffffffffffffffffffffffffffffffffff1673ffffffffffffffffffffffffffffffffffffffff1663095ea7b3620002ba6200041a60201b60201c565b7fffffffffffffffffffffffffffffffffffffffffffffffffffffffffffffffff6040518363ffffffff1660e01b8152600401620002fa92919062000637565b6020604051808303816000875af11580156200031a573d6000803e3d6000fd5b505050506040513d601f19601f82011682018060405250810190620003409190620006a1565b5050505050505050620006d3565b600033905090565b60008060009054906101000a900473ffffffffffffffffffffffffffffffffffffffff169050816000806101000a81548173ffffffffffffffffffffffffffffffffffffffff021916908373ffffffffffffffffffffffffffffffffffffffff1602179055508173ffffffffffffffffffffffffffffffffffffffff168173ffffffffffffffffffffffffffffffffffffffff167f8be0079c531659141344cd1fd0a4f28419497f9722a3daafe3b4186f6b6457e060405160405180910390a35050565b60008060009054906101000a900473ffffffffffffffffffffffffffffffffffffffff16905090565b600080fd5b600073ffffffffffffffffffffffffffffffffffffffff82169050919050565b6000620004758262000448565b9050919050565b620004878162000468565b81146200049357600080fd5b50565b600081519050620004a7816200047c565b92915050565b600060ff82169050919050565b620004c581620004ad565b8114620004d157600080fd5b50565b600081519050620004e581620004ba565b92915050565b6000819050919050565b6200050081620004eb565b81146200050c57600080fd5b50565b6000815190506200052081620004f5565b92915050565b600080600080600080600060e0888a03121562000548576200054762000443565b5b6000620005588a828b0162000496565b97505060206200056b8a828b01620004d4565b96505060406200057e8a828b016200050f565b9550506060620005918a828b016200050f565b9450506080620005a48a828b0162000496565b93505060a0620005b78a828b0162000496565b92505060c0620005ca8a828b0162000496565b91505092959891949750929550565b620005e48162000468565b82525050565b6000819050919050565b6000819050919050565b60006200061f620006196200061384620005ea565b620005f4565b620004eb565b9050919050565b6200063181620005fe565b82525050565b60006040820190506200064e6000830185620005d9565b6200065d602083018462000626565b9392505050565b60008115159050919050565b6200067b8162000664565b81146200068757600080fd5b50565b6000815190506200069b8162000670565b92915050565b600060208284031215620006ba57620006b962000443565b5b6000620006ca848285016200068a565b91505092915050565b61140080620006e36000396000f3fe608060405234801561001057600080fd5b50600436106100b45760003560e01c806386b301ad1161007157806386b301ad146101465780638da5cb5b14610164578063ab47176c14610182578063ea8a1af01461019e578063f207564e146101a8578063f2fde38b146101c4576100b4565b80630f15f4c0146100b95780630ff5ce72146100c357806319a50f08146100df578063663b1953146101045780636756e5f514610120578063715018a61461013c575b600080fd5b6100c16101e0565b005b6100dd60048036038101906100d89190610da1565b610290565b005b6100e7610371565b6040516100fb989796959493929190610ede565b60405180910390f35b61011e60048036038101906101199190610f88565b610512565b005b61013a60048036038101906101359190610fe1565b6105e5565b005b6101446106a4565b005b61014e61072c565b60405161015b919061100e565b60405180910390f35b61016c6107bf565b6040516101799190611029565b60405180910390f35b61019c60048036038101906101979190611070565b6107e8565b005b6101a661089f565b005b6101c260048036038101906101bd9190611070565b610a7d565b005b6101de60048036038101906101d991906110c9565b610ba1565b005b6101e8610c98565b73ffffffffffffffffffffffffffffffffffffffff166102066107bf565b73ffffffffffffffffffffffffffffffffffffffff161461025c576040517f08c379a000000000000000000000000000000000000000000000000000000000815260040161025390611153565b60405180910390fd5b6002600060146101000a81548160ff0219169083600481111561028257610281610dce565b5b021790555042600381905550565b610298610c98565b73ffffffffffffffffffffffffffffffffffffffff166102b66107bf565b73ffffffffffffffffffffffffffffffffffffffff161461030c576040517f08c379a000000000000000000000000000000000000000000000000000000000815260040161030390611153565b60405180910390fd5b8015610342576003600060146101000a81548160ff0219169083600481111561033857610337610dce565b5b021790555061036e565b6002600060146101000a81548160ff0219169083600481111561036857610367610dce565b5b02179055505b50565b600080600080600080600080610385610c98565b73ffffffffffffffffffffffffffffffffffffffff166103a36107bf565b73ffffffffffffffffffffffffffffffffffffffff16146103f9576040517f08c379a00000000000000000000000000000000000000000000000000000000081526004016103f090611153565b60405180910390fd5b600060149054906101000a900460ff16600160009054906101000a900473ffffffffffffffffffffffffffffffffffffffff16600160149054906101000a900467ffffffffffffffff166001601c9054906101000a900460ff16600254600660009054906101000a900473ffffffffffffffffffffffffffffffffffffffff1673ffffffffffffffffffffffffffffffffffffffff166370a08231306040518263ffffffff1660e01b81526004016104b19190611029565b602060405180830381865afa1580156104ce573d6000803e3d6000fd5b505050506040513d601f19601f820116820180604052508101906104f29190611188565b600354600454975097509750975097509750975097509091929394959697565b61051a610c98565b73ffffffffffffffffffffffffffffffffffffffff166105386107bf565b73ffffffffffffffffffffffffffffffffffffffff161461058e576040517f08c379a000000000000000000000000000000000000000000000000000000000815260040161058590611153565b60405180910390fd5b6001600060146101000a81548160ff021916908360048111156105b4576105b3610dce565b5b021790555080600160146101000a81548167ffffffffffffffff021916908367ffffffffffffffff16021790555050565b6105ed610c98565b73ffffffffffffffffffffffffffffffffffffffff1661060b6107bf565b73ffffffffffffffffffffffffffffffffffffffff1614610661576040517f08c379a000000000000000000000000000000000000000000000000000000000815260040161065890611153565b60405180910390fd5b806001601c6101000a81548160ff021916908360ff1602179055508060ff166001601c9054906101000a900460ff1660ff16146106a1576106a06111b5565b5b50565b6106ac610c98565b73ffffffffffffffffffffffffffffffffffffffff166106ca6107bf565b73ffffffffffffffffffffffffffffffffffffffff1614610720576040517f08c379a000000000000000000000000000000000000000000000000000000000815260040161071790611153565b60405180910390fd5b61072a6000610ca0565b565b6000610736610c98565b73ffffffffffffffffffffffffffffffffffffffff166107546107bf565b73ffffffffffffffffffffffffffffffffffffffff16146107aa576040517f08c379a00000000000000000000000000000000000000000000000000000000081526004016107a190611153565b60405180910390fd5b600060149054906101000a900460ff16905090565b60008060009054906101000a900473ffffffffffffffffffffffffffffffffffffffff16905090565b6107f0610c98565b73ffffffffffffffffffffffffffffffffffffffff1661080e6107bf565b73ffffffffffffffffffffffffffffffffffffffff1614610864576040517f08c379a000000000000000000000000000000000000000000000000000000000815260040161085b90611153565b60405180910390fd5b80600260008282546108769190611213565b925050819055506002548160025461088e9190611269565b1061089c5761089b6111b5565b5b50565b6108a7610c98565b73ffffffffffffffffffffffffffffffffffffffff166108c56107bf565b73ffffffffffffffffffffffffffffffffffffffff161461091b576040517f08c379a000000000000000000000000000000000000000000000000000000000815260040161091290611153565b60405180910390fd5b6000600481111561092f5761092e610dce565b5b600060149054906101000a900460ff16600481111561095157610950610dce565b5b03610986576004600060146101000a81548160ff0219169083600481111561097c5761097b610dce565b5b0217905550610a7b565b600760009054906101000a900473ffffffffffffffffffffffffffffffffffffffff1673ffffffffffffffffffffffffffffffffffffffff166323b872dd30600160009054906101000a900473ffffffffffffffffffffffffffffffffffffffff16600160149054906101000a900467ffffffffffffffff166040518463ffffffff1660e01b8152600401610a1d939291906112d8565b600060405180830381600087803b158015610a3757600080fd5b505af1158015610a4b573d6000803e3d6000fd5b505050506004600060146101000a81548160ff02191690836004811115610a7557610a74610dce565b5b02179055505b565b610a85610c98565b73ffffffffffffffffffffffffffffffffffffffff16610aa36107bf565b73ffffffffffffffffffffffffffffffffffffffff1614610af9576040517f08c379a0000000000000000000000000000000000000000000000000000000008152600401610af090611153565b60405180910390fd5b600560009054906101000a900473ffffffffffffffffffffffffffffffffffffffff1673ffffffffffffffffffffffffffffffffffffffff1663d66d6c1082600160149054906101000a900467ffffffffffffffff166040518363ffffffff1660e01b8152600401610b6c92919061130f565b600060405180830381600087803b158015610b8657600080fd5b505af1158015610b9a573d6000803e3d6000fd5b5050505050565b610ba9610c98565b73ffffffffffffffffffffffffffffffffffffffff16610bc76107bf565b73ffffffffffffffffffffffffffffffffffffffff1614610c1d576040517f08c379a0000000000000000000000000000000000000000000000000000000008152600401610c1490611153565b60405180910390fd5b600073ffffffffffffffffffffffffffffffffffffffff168173ffffffffffffffffffffffffffffffffffffffff1603610c8c576040517f08c379a0000000000000000000000000000000000000000000000000000000008152600401610c83906113aa565b60405180910390fd5b610c9581610ca0565b50565b600033905090565b60008060009054906101000a900473ffffffffffffffffffffffffffffffffffffffff169050816000806101000a81548173ffffffffffffffffffffffffffffffffffffffff021916908373ffffffffffffffffffffffffffffffffffffffff1602179055508173ffffffffffffffffffffffffffffffffffffffff168173ffffffffffffffffffffffffffffffffffffffff167f8be0079c531659141344cd1fd0a4f28419497f9722a3daafe3b4186f6b6457e060405160405180910390a35050565b600080fd5b60008115159050919050565b610d7e81610d69565b8114610d8957600080fd5b50565b600081359050610d9b81610d75565b92915050565b600060208284031215610db757610db6610d64565b5b6000610dc584828501610d8c565b91505092915050565b7f4e487b7100000000000000000000000000000000000000000000000000000000600052602160045260246000fd5b60058110610e0e57610e0d610dce565b5b50565b6000819050610e1f82610dfd565b919050565b6000610e2f82610e11565b9050919050565b610e3f81610e24565b82525050565b600073ffffffffffffffffffffffffffffffffffffffff82169050919050565b6000610e7082610e45565b9050919050565b610e8081610e65565b82525050565b600067ffffffffffffffff82169050919050565b610ea381610e86565b82525050565b600060ff82169050919050565b610ebf81610ea9565b82525050565b6000819050919050565b610ed881610ec5565b82525050565b600061010082019050610ef4600083018b610e36565b610f01602083018a610e77565b610f0e6040830189610e9a565b610f1b6060830188610eb6565b610f286080830187610ecf565b610f3560a0830186610ecf565b610f4260c0830185610ecf565b610f4f60e0830184610ecf565b9998505050505050505050565b610f6581610e86565b8114610f7057600080fd5b50565b600081359050610f8281610f5c565b92915050565b600060208284031215610f9e57610f9d610d64565b5b6000610fac84828501610f73565b91505092915050565b610fbe81610ea9565b8114610fc957600080fd5b50565b600081359050610fdb81610fb5565b92915050565b600060208284031215610ff757610ff6610d64565b5b600061100584828501610fcc565b91505092915050565b60006020820190506110236000830184610e36565b92915050565b600060208201905061103e6000830184610e77565b92915050565b61104d81610ec5565b811461105857600080fd5b50565b60008135905061106a81611044565b92915050565b60006020828403121561108657611085610d64565b5b60006110948482850161105b565b91505092915050565b6110a681610e65565b81146110b157600080fd5b50565b6000813590506110c38161109d565b92915050565b6000602082840312156110df576110de610d64565b5b60006110ed848285016110b4565b91505092915050565b600082825260208201905092915050565b7f4f776e61626c653a2063616c6c6572206973206e6f7420746865206f776e6572600082015250565b600061113d6020836110f6565b915061114882611107565b602082019050919050565b6000602082019050818103600083015261116c81611130565b9050919050565b60008151905061118281611044565b92915050565b60006020828403121561119e5761119d610d64565b5b60006111ac84828501611173565b91505092915050565b7f4e487b7100000000000000000000000000000000000000000000000000000000600052600160045260246000fd5b7f4e487b7100000000000000000000000000000000000000000000000000000000600052601160045260246000fd5b600061121e82610ec5565b915061122983610ec5565b9250827fffffffffffffffffffffffffffffffffffffffffffffffffffffffffffffffff0382111561125e5761125d6111e4565b5b828201905092915050565b600061127482610ec5565b915061127f83610ec5565b925082821015611292576112916111e4565b5b828203905092915050565b6000819050919050565b60006112c26112bd6112b884610e86565b61129d565b610ec5565b9050919050565b6112d2816112a7565b82525050565b60006060820190506112ed6000830186610e77565b6112fa6020830185610e77565b61130760408301846112c9565b949350505050565b60006040820190506113246000830185610ecf565b61133160208301846112c9565b9392505050565b7f4f776e61626c653a206e6577206f776e657220697320746865207a65726f206160008201527f6464726573730000000000000000000000000000000000000000000000000000602082015250565b60006113946026836110f6565b915061139f82611338565b604082019050919050565b600060208201905081810360008301526113c381611387565b905091905056fea264697066735822122014411b75cef4721eaf1a569216b18bf6cb4077fc9944bd879be6df4485cc3c5964736f6c634300080d0033a264697066735822122090e3693b5a9bfb7f4a7e25c3d9c210e0e2952744cbfcc7918319a155b14ae2c664736f6c634300080d0033",
  "immutableReferences": {},
  "source": "// SPDX-License-Identifier: MIT\n\npragma solidity ^0.8.2;\n\nimport \"@openzeppelin/contracts/access/Ownable.sol\";\nimport \"@openzeppelin/contracts/utils/Counters.sol\";\nimport \"@openzeppelin/contracts/token/ERC721/IERC721.sol\";\nimport \"@openzeppelin/contracts/token/ERC20/IERC20.sol\";\n\nimport \"./DummyDeRace.sol\";\n\ncontract Academy is Ownable {\n  using Counters for Counters.Counter;\n\n  address private academy_address;\n  address private derace_contract;\n  IERC721 private horse_token;\n  IERC20  private derc_token;\n  address private horse_token_address;\n  address private derc_token_address;\n\n  struct TenureData {\n    Tenure.TenureState state;\n    address horse_owner;\n    uint64  horse_id;\n    uint8   academy_mode;\n    uint256 initial_derc_supply;\n    uint256 current_derc_supply;\n    uint256 start_time;\n    uint256 tenure_length;\n  }\n\n  Counters.Counter private _tenure_id_counter;\n  mapping(uint256 => address) private tenures;\n  uint256[] private live_tenures;\n\n  constructor () {}\n\n  modifier onlyAcademy {\n    require(msg.sender == academy_address, \"unauthorized\");\n    _;\n  }\n\n  modifier onlyOwnerOrAcademy {\n    require(msg.sender == academy_address || msg.sender == owner(), \"unauthorized\");\n    _;\n  }\n\n  event TenureInitialized(\n    uint256 tenure_id,\n    address horse_owner,\n    uint8 academy_mode,\n    uint256 derc_requirement,\n    uint256 tenure_length\n  );\n\n  event TenureSupplied(\n    uint256 tenure_id,\n    address horse_owner,\n    uint64 horse_id,\n    uint256 supplied_derc\n  );\n\n  event TenureActivated(\n    uint256 tenure_id,\n    uint8 academy_mode,\n    uint256 start_time,\n    uint256 tenure_length\n  );\n\n  event TenureCancelled(\n    uint256 tenure_id,\n    uint256 current_derc_supply\n  );\n\n  event TenureExpired(\n    uint256 tenure_id,\n    uint256 current_derc_supply\n  );\n\n  function set_roles (\n    address _academy\n  ) external onlyOwner {\n    academy_address = _academy;\n  }\n\n  function set_external_contracts (\n    address _derace_contract,\n    address _horse_token,\n    address _derc_token\n  ) external onlyOwner {\n    derace_contract = _derace_contract;\n    horse_token = IERC721(_horse_token);\n    horse_token_address = _horse_token;\n    derc_token = IERC20(_derc_token);\n    derc_token_address = _derc_token;\n  }\n\n  function initialize_tenure (\n    address _horse_owner,\n    uint8 _academy_mode,\n    uint256 _initial_derc_supply,\n    uint256 _tenure_length\n  ) external onlyOwner {\n    // require(_horse_owner != address(0), \"invalid address\");\n    require(_initial_derc_supply >= 1 ether, \"too little derc\");\n    require(_tenure_length > 0, \"length too low\");\n    // require(derace_contract != address(0), \"no external contracts\");\n    // require(derc_token_address != address(0), \"no external contracts\");\n\n    uint256 new_tenure_id = _tenure_id_counter.current();\n    _tenure_id_counter.increment();\n\n    Tenure new_tenure = new Tenure(\n      _horse_owner,\n      _academy_mode,\n      _initial_derc_supply,\n      _tenure_length,\n      derace_contract,\n      derc_token_address,\n      horse_token_address\n    );\n\n    tenures[new_tenure_id] = address(new_tenure);\n    live_tenures.push(new_tenure_id);\n\n    emit TenureInitialized(\n      new_tenure_id,\n      _horse_owner,\n      _academy_mode,\n      _initial_derc_supply,\n      _tenure_length\n    );\n\n  }\n\n  function get_tenure (uint256 tenure_id) external view returns(\n    Tenure.TenureState state,\n    address horse_owner,\n    uint64 horse_id,\n    uint8 academy_mode,\n    uint256 initial_derc_supply,\n    uint256 current_derc_supply,\n    uint256 start_time,\n    uint256 tenure_length\n  ) {\n    TenureData memory tenure_data;\n    (\n      tenure_data.state,\n      tenure_data.horse_owner,\n      tenure_data.horse_id,\n      tenure_data.academy_mode,\n      tenure_data.initial_derc_supply,\n      tenure_data.current_derc_supply,\n      tenure_data.start_time,\n      tenure_data.tenure_length\n    ) = Tenure(tenures[tenure_id]).get_tenure();\n    require(msg.sender == tenure_data.horse_owner || msg.sender == owner(), \"unauthorized\");\n\n    return (\n      tenure_data.state,\n      tenure_data.horse_owner,\n      tenure_data.horse_id,\n      tenure_data.academy_mode,\n      tenure_data.initial_derc_supply,\n      tenure_data.current_derc_supply,\n      tenure_data.start_time,\n      tenure_data.tenure_length\n    );\n  }\n\n  function get_tenure_address (uint256 tenure_id) external onlyOwner view returns(\n    address tenure_address\n  ) {\n    require(tenures[tenure_id] != address(0), \"invalid\");\n    return tenures[tenure_id];\n  }\n\n  function get_all_tenures () external onlyOwner view returns(\n    uint256[] memory all_tenures\n  ) {\n    return live_tenures;\n  }\n\n  function supply_tenure (\n    uint256 tenure_id,\n    uint64 _horse_id\n  ) external {\n    require(tenures[tenure_id] != address(0), \"invalid\");\n    TenureData memory tenure_data;\n    (\n      tenure_data.state,\n      tenure_data.horse_owner,\n      tenure_data.horse_id,,\n      tenure_data.initial_derc_supply,,,\n    ) = Tenure(tenures[tenure_id]).get_tenure();\n\n    require(tenure_data.state == Tenure.TenureState.Initialized, \"wrong state\");\n    require(tenure_data.horse_owner == msg.sender, \"unauthorized\");\n    // require(horse_token.ownerOf(_horse_id) == msg.sender, \"wrong horse\");\n    // require(horse_token.getApproved(_horse_id) == address(this), \"horse not approved\");\n    // require(derc_token.balanceOf(msg.sender) >= tenure_data.initial_derc_supply, \"not enough DERC\");\n    // require(derc_token.allowance(msg.sender, address(this)) >= tenure_data.initial_derc_supply, \"derc not approved\");\n\n    horse_token.transferFrom(msg.sender, tenures[tenure_id], _horse_id);\n    derc_token.transferFrom(msg.sender, tenures[tenure_id], tenure_data.initial_derc_supply);\n\n    assert(tenure_data.initial_derc_supply == derc_token.balanceOf(tenures[tenure_id]));\n    assert(horse_token.ownerOf(_horse_id) == tenures[tenure_id]);\n\n    Tenure(tenures[tenure_id]).supply(_horse_id);\n\n    emit TenureSupplied(\n      tenure_id,\n      tenure_data.horse_owner,\n      _horse_id,\n      tenure_data.initial_derc_supply\n    );\n  }\n\n  function activate_tenure (\n    uint256 tenure_id\n  ) external onlyOwner {\n    require(tenures[tenure_id] != address(0), \"invalid\");\n    TenureData memory tenure_data;\n    (\n      tenure_data.state,,,\n      tenure_data.academy_mode,,,,\n      tenure_data.tenure_length\n    ) = Tenure(tenures[tenure_id]).get_tenure();\n    require(tenure_data.state == Tenure.TenureState.Supplied, \"wrong state\");\n\n    Tenure(tenures[tenure_id]).activate();\n\n    emit TenureActivated(\n      tenure_id,\n      tenure_data.academy_mode,\n      block.timestamp,\n      tenure_data.tenure_length\n    );\n  }\n\n  function register (\n    uint256 tenure_id,\n    uint256 race_id\n  ) external onlyAcademy {\n    require(tenures[tenure_id] != address(0), \"invalid\");\n    TenureData memory tenure_data;\n    (\n      tenure_data.state,,,,,\n      tenure_data.current_derc_supply,\n      tenure_data.start_time,\n      tenure_data.tenure_length\n    ) = Tenure(tenures[tenure_id]).get_tenure();\n    require(tenure_data.state != Tenure.TenureState.Paused, \"paused\");\n    require(tenure_data.state == Tenure.TenureState.Active, \"wrong state\");\n\n    Tenure tenure = Tenure(tenures[tenure_id]);\n    if (tenure_data.start_time + tenure_data.tenure_length < block.timestamp) {\n      tenure.cancel();\n      emit TenureExpired(\n        tenure_id,\n        tenure_data.current_derc_supply\n      );\n    } else {\n      tenure.register(race_id);\n    }\n  }\n\n  function cancel_tenure (\n    uint256 tenure_id\n  ) public {\n    require(tenures[tenure_id] != address(0), \"invalid\");\n    TenureData memory tenure_data;\n    (tenure_data.state, tenure_data.horse_owner ,,,,,,) = Tenure(tenures[tenure_id]).get_tenure();\n    require(tenure_data.state != Tenure.TenureState.Cancelled, \"wrong state\");\n    require(\n      msg.sender == owner() ||\n      msg.sender == tenure_data.horse_owner,\n      \"unauthorized\"\n    );\n\n    Tenure(tenures[tenure_id]).cancel();\n\n    emit TenureCancelled(\n      tenure_id,\n      tenure_data.current_derc_supply\n    );\n  }\n\n  function set_tenure_paused (\n    uint256 tenure_id,\n    bool paused\n  ) external onlyOwner {\n    require(tenures[tenure_id] != address(0), \"invalid\");\n    Tenure.TenureState state = Tenure(tenures[tenure_id]).get_state();\n    require(\n      (state == Tenure.TenureState.Active) ||\n      (state == Tenure.TenureState.Paused)\n    , \"wrong state\");\n\n    Tenure(tenures[tenure_id]).set_paused(paused);\n  }\n\n  function set_tenure_academy_mode (\n    uint256 tenure_id,\n    uint8 academy_mode\n  ) external onlyOwnerOrAcademy {\n    require(tenures[tenure_id] != address(0), \"invalid\");\n    Tenure(tenures[tenure_id]).set_academy_mode(academy_mode);\n  }\n\n  function deposit_funds_to_tenure (\n    uint256 tenure_id,\n    uint256 amount\n  ) external {\n    require(tenures[tenure_id] != address(0), \"invalid\");\n    (Tenure.TenureState state, address horse_owner ,,,,,,) = Tenure(tenures[tenure_id]).get_tenure();\n    require(\n      (state == Tenure.TenureState.Supplied) ||\n      (state == Tenure.TenureState.Active) ||\n      (state == Tenure.TenureState.Paused)\n    , \"wrong state\");\n    require(\n      msg.sender == owner() ||\n      msg.sender == horse_owner,\n      \"unauthorized\"\n    );\n    // require(derc_token.balanceOf(msg.sender) >= amount, \"not enough DERC\");\n    // require(derc_token.allowance(msg.sender, address(this)) >= amount, \"derc not approved\");\n    \n    uint256 initial_contract_balance = derc_token.balanceOf(tenures[tenure_id]);\n    derc_token.transferFrom(msg.sender, tenures[tenure_id], amount);\n    assert(initial_contract_balance + amount == derc_token.balanceOf(tenures[tenure_id]));\n    Tenure(tenures[tenure_id]).record_deposit(amount);\n  }\n\n  function withdraw_funds_from_tenure (\n    uint256 tenure_id,\n    uint256 amount,\n    address to_address\n  ) public onlyOwnerOrAcademy {\n    require(tenures[tenure_id] != address(0), \"invalid\");\n    Tenure.TenureState state = Tenure(tenures[tenure_id]).get_state();\n    require(\n      (state == Tenure.TenureState.Supplied) ||\n      (state == Tenure.TenureState.Active) ||\n      (state == Tenure.TenureState.Paused)\n    , \"wrong state\");\n\n    derc_token.transferFrom(tenures[tenure_id], to_address, amount);\n  }\n}\n\n\ncontract Tenure is Ownable {\n\n  enum TenureState {\n    Initialized,\n    Supplied,\n    Active,\n    Paused,\n    Cancelled\n  }\n\n  TenureState private state;\n  address private horse_owner;\n  uint64  private horse_id;\n  uint8   private academy_mode;\n  uint256 private initial_derc_supply;\n  uint256 private start_time;\n  uint256 private tenure_length;\n\n  address private derace_contract;\n  IERC20  private derc_token;\n  IERC721 private horse_token;\n\n  constructor (\n    address _horse_owner,\n    uint8 _academy_mode,\n    uint256 _initial_derc_supply,\n    uint256 _tenure_length,\n    address _derace_contract,\n    address _derc_token,\n    address _horse_token\n  ) {\n    horse_owner = _horse_owner;\n    academy_mode = _academy_mode;\n    initial_derc_supply = _initial_derc_supply;\n    tenure_length = _tenure_length;\n    derace_contract = _derace_contract;\n    derc_token = IERC20(_derc_token);\n    horse_token = IERC721(_horse_token);\n\n    derc_token.approve(derace_contract, 2**256 - 1);\n    derc_token.approve(owner(), 2**256 - 1);\n  }\n\n  function get_tenure () external onlyOwner view returns(\n    TenureState  _state,\n    address  _horse_owner,\n    uint64   _horse_id,\n    uint8    _academy_mode,\n    uint256  _initial_derc_supply,\n    uint256  _current_derc_supply,\n    uint256  _start_time,\n    uint256  _tenure_length\n  ) {\n    return (\n      state,\n      horse_owner,\n      horse_id,\n      academy_mode,\n      initial_derc_supply,\n      derc_token.balanceOf(address(this)),\n      start_time,\n      tenure_length\n    );\n  }\n\n  function get_state () external onlyOwner view returns(\n    TenureState _state\n  ) {\n    return state;\n  }\n\n  function supply (\n    uint64 _horse_id\n  ) external onlyOwner {\n    state = TenureState.Supplied;\n    horse_id = _horse_id;\n  }\n\n  function activate () external onlyOwner {\n    state = TenureState.Active;\n    start_time = block.timestamp;\n  }\n\n  function register (\n    uint256 race_id\n  ) external onlyOwner {\n    // uint256 initial_balance = derc_token.balanceOf(address(this));\n\n    DummyDeRace(derace_contract).register(race_id, horse_id);\n\n    // uint256 current_balance = derc_token.balanceOf(address(this));\n    // used_derc += initial_balance - current_balance;\n  }\n\n  function cancel () external onlyOwner {\n    if (state == TenureState.Initialized) {\n      state = TenureState.Cancelled;\n    } else {\n      horse_token.transferFrom(address(this), horse_owner, horse_id);\n      // assert(horse_token.ownerOf(horse_id) == horse_owner);\n      state = TenureState.Cancelled;\n    }\n  }\n\n  function set_paused (\n    bool paused\n  ) external onlyOwner {\n    if (paused) {\n      state = TenureState.Paused;\n    } else {\n      state = TenureState.Active;\n    }\n  }\n\n  function set_academy_mode (\n    uint8 _academy_mode\n  ) external onlyOwner {\n    academy_mode = _academy_mode;\n    assert(academy_mode == _academy_mode);\n  }\n\n  function record_deposit (\n    uint256 _amount\n  ) external onlyOwner {\n    initial_derc_supply += _amount;\n    assert(initial_derc_supply - _amount < initial_derc_supply);\n  }\n}",
  "sourcePath": "/home/jlewis/github/academy_contract/contracts/polygon/AcademyTenure.sol",
  "compiler": {
    "name": "solc",
    "version": "0.8.13+commit.abaa5c0e.Emscripten.clang"
  },
  "schemaVersion": "3.4.6",
  "updatedAt": "2022-03-30T15:45:36.708Z",
  "devdoc": {
    "kind": "dev",
    "methods": {
      "owner()": {
        "details": "Returns the address of the current owner."
      },
      "renounceOwnership()": {
        "details": "Leaves the contract without owner. It will not be possible to call `onlyOwner` functions anymore. Can only be called by the current owner. NOTE: Renouncing ownership will leave the contract without an owner, thereby removing any functionality that is only available to the owner."
      },
      "transferOwnership(address)": {
        "details": "Transfers ownership of the contract to a new account (`newOwner`). Can only be called by the current owner."
      }
    },
    "version": 1
  },
  "userdoc": {
    "kind": "user",
    "methods": {},
    "version": 1
  },
  "db": {
    "callBytecode": {
      "id": "0x8efb0e9a12286b5850573b4bd1c47922b509922a8d78cdb211e5cbb11e2ab507"
    },
    "createBytecode": {
      "id": "0x3925b513fa59ce7e428f138342453a445eafbb355b59715ea8741dee8e3e4bca"
    },
    "contract": {
      "id": "0xbb6c2d3e84d91552d594986611b18162f434d7c2d0cf829a63af425e4dcda5f0"
    }
  }
}